{
    "contractName": "Whitelistable",
    "abi": [
        {
            "constant": false,
            "inputs": [
                {
                    "name": "userAddress",
                    "type": "address"
                }
            ],
            "name": "registerUser",
            "outputs": [],
            "payable": false,
            "stateMutability": "nonpayable",
            "type": "function"
        },
        {
            "constant": false,
            "inputs": [
                {
                    "name": "userAddress",
                    "type": "address"
                }
            ],
            "name": "unregisterUser",
            "outputs": [],
            "payable": false,
            "stateMutability": "nonpayable",
            "type": "function"
        },
        {
            "constant": true,
            "inputs": [],
            "name": "owner",
            "outputs": [
                {
                    "name": "",
                    "type": "address"
                }
            ],
            "payable": false,
            "stateMutability": "view",
            "type": "function"
        },
        {
            "constant": true,
            "inputs": [
                {
                    "name": "",
                    "type": "address"
                }
            ],
            "name": "whitelisted",
            "outputs": [
                {
                    "name": "",
                    "type": "bool"
                }
            ],
            "payable": false,
            "stateMutability": "view",
            "type": "function"
        },
        {
            "constant": false,
            "inputs": [
                {
                    "name": "newOwner",
                    "type": "address"
                }
            ],
            "name": "transferOwnership",
            "outputs": [],
            "payable": false,
            "stateMutability": "nonpayable",
            "type": "function"
        },
        {
            "anonymous": false,
            "inputs": [
                {
                    "indexed": true,
                    "name": "sender",
                    "type": "address"
                },
                {
                    "indexed": true,
                    "name": "userAddress",
                    "type": "address"
                }
            ],
            "name": "LogUserRegistered",
            "type": "event"
        },
        {
            "anonymous": false,
            "inputs": [
                {
                    "indexed": true,
                    "name": "sender",
                    "type": "address"
                },
                {
                    "indexed": true,
                    "name": "userAddress",
                    "type": "address"
                }
            ],
            "name": "LogUserUnregistered",
            "type": "event"
        },
        {
            "anonymous": false,
            "inputs": [
                {
                    "indexed": true,
                    "name": "previousOwner",
                    "type": "address"
                },
                {
                    "indexed": true,
                    "name": "newOwner",
                    "type": "address"
                }
            ],
            "name": "OwnershipTransferred",
            "type": "event"
        }
    ],
    "bytecode": "0x606060405260008054600160a060020a033316600160a060020a0319909116179055610344806100306000396000f30060606040526004361061006c5763ffffffff7c01000000000000000000000000000000000000000000000000000000006000350416632199d5cd811461007157806321f2ca3b146100925780638da5cb5b146100b1578063d936547e146100e0578063f2fde38b14610113575b600080fd5b341561007c57600080fd5b610090600160a060020a0360043516610132565b005b341561009d57600080fd5b610090600160a060020a03600435166101bd565b34156100bc57600080fd5b6100c4610259565b604051600160a060020a03909116815260200160405180910390f35b34156100eb57600080fd5b6100ff600160a060020a0360043516610268565b604051901515815260200160405180910390f35b341561011e57600080fd5b610090600160a060020a036004351661027d565b60005433600160a060020a0390811691161461014d57600080fd5b600160a060020a038116151561016257600080fd5b600160a060020a03808216600081815260016020819052604091829020805460ff1916909117905590913316907f10b440945e0532a2a062147fc0ab108d934c98db4bbf4091c6d02feb5dc49105905160405180910390a350565b60005433600160a060020a039081169116146101d857600080fd5b600160a060020a03811660009081526001602081905260409091205460ff1615151461020357600080fd5b600160a060020a0380821660008181526001602052604090819020805460ff1916905590913316907f1f150322f8d0152d6917db39890cd8480d99d2a3586b56a040c732c4030c96ac905160405180910390a350565b600054600160a060020a031681565b60016020526000908152604090205460ff1681565b60005433600160a060020a0390811691161461029857600080fd5b600160a060020a03811615156102ad57600080fd5b600054600160a060020a0380831691167f8be0079c531659141344cd1fd0a4f28419497f9722a3daafe3b4186f6b6457e060405160405180910390a36000805473ffffffffffffffffffffffffffffffffffffffff1916600160a060020a03929092169190911790555600a165627a7a7230582094137d6c4174c6cbc6b67e58c0aad91340a323610f23a40c9dfcf22bf3e062ec0029",
    "source": "pragma solidity 0.4.18;\n\nimport \"zeppelin-solidity/contracts/ownership/Ownable.sol\";\n\n\ncontract Whitelistable is Ownable {\n    \n    event LogUserRegistered(address indexed sender, address indexed userAddress);\n    event LogUserUnregistered(address indexed sender, address indexed userAddress);\n    \n    mapping(address => bool) public whitelisted;\n\n    function registerUser(address userAddress) \n        public \n        onlyOwner \n    {\n        require(userAddress != 0);\n        whitelisted[userAddress] = true;\n        LogUserRegistered(msg.sender, userAddress);\n    }\n\n    function unregisterUser(address userAddress) \n        public \n        onlyOwner \n    {\n        require(whitelisted[userAddress] == true);\n        whitelisted[userAddress] = false;\n        LogUserUnregistered(msg.sender, userAddress);\n    }\n}\n",
    "sourcePath": "/home/anibal/Documentos/ConsenSys/TokenFoundryProject/sale-contracts/contracts/user-registry/Whitelistable.sol",
    "compiler": {
        "name": "solc",
        "version": "0.4.18+commit.9cf6e910.Emscripten.clang"
    },
    "schemaVersion": "1.0.1",
    "updatedAt": "2018-01-29T14:45:15.859Z"
}